:020000040800F2
:1000000000800120511400088514000885140008A0
:1000100085140008851400088514000800000000FD
:10002000000000000000000000000000851400082F
:1000300085140008000000008514000885140008DD
:10004000851400088514000885140008851400082C
:10005000851400088514000885140008851400081C
:10006000851400088514000885140008851400080C
:1000700085140008851400088514000885140008FC
:10008000851400088514000885140008000000008D
:1000900000000000000000000000000085140008BF
:1000A00085140008851400088514000885140008CC
:1000B00085140008851400088514000885140008BC
:1000C00085140008851400088514000885140008AC
:1000D000851400088514000885140008000000003D
:1000E000851400088514000885140008000000002D
:1000F000000000000000000000000000851400085F
:10010000000000008514000885140008851400080C
:1001100000000000000000000000000000000000DF
:10012000851400088514000885140008851400084B
:10013000851400080000000000000000000000001E
:10014000000000000000000000000000851400080E
:10015000851400088514000885140008851400081B
:10016000851400088514000800000000000000004D
:10017000000000000000000000000000000000007F
:1001800000000000851400080000000000000000CE
:100190008514000810B5054C237833B9044B13B10E
:1001A0000448AFF300800123237010BD640B0020CE
:1001B00000000000BCD7000808B5034B1BB1034981
:1001C0000348AFF3008008BD00000000680B00206A
:1001D000BCD70008154B002B08BF134B9D46A3F559
:1001E000803A00218B460F461348144A121A03F036
:1001F000FDFB0F4B002B00D098470E4B002B00D07F
:1002000098470020002104000D000D48002802D06E
:100210000C4807F027F903F0E5F92000290000F069
:10022000E2FE02F017FD00BF000008000080012080
:1002300000000000D90F0008640B002028110020E6
:1002400065740008A583000838B5042000F018FF85
:10025000054600F0C7F80C2000F012FF044600F03D
:100260002BF92946204600F023F9204600F03CF9FE
:10027000002038BD38B5B0F90030013304460D46D2
:1002800004D134220549064802F0C0FB6368E268E5
:100290000DB1136038BD1B04FBE700BF64C9000843
:1002A000A9C9000838B504460D4602F0C9FB294625
:1002B000204600F0ADFDBDE8384002F0EBBB000089
:1002C00038B501210F4D1048104CFFF7D3FF002126
:1002D0000F48FFF7CFFF28464FF42F71FFF7E2FFDB
:1002E0004FF42F712046FFF7DDFF0A4802F006FCAD
:1002F00028460021FFF7D6FF00212046FFF7D2FF56
:1003000038BD00BFB80B0020900B0020A00B0020D0
:10031000800B0020CDCCCC3D38B500210F4D1048CE
:10032000104CFFF7A7FF01210F48FFF7A3FF284656
:100330004FF42F71FFF7B6FF4FF42F712046FFF7F0
:10034000B1FF0A4802F0DAFB28460021FFF7AAFFB6
:1003500000212046FFF7A6FF38BD00BFB80B0020E4
:10036000900B0020A00B0020800B0020CDCCCC3DBA
:10037000012908B51CD100211548FFF77BFF00219A
:100380001448FFF777FF4FF4C8711348FFF78AFF4F
:10039000C8211248FFF786FF114802F0AFFB002189
:1003A0000E48FFF77FFF00210B48FFF77BFF08BDDA
:1003B00001210748FFF75EFF01210648FFF75AFFBA
:1003C000C8210548FFF76EFF4FF4C871E1E700BF91
:1003D000800B0020900B0020A00B0020B80B002009
:1003E000CDCCCC3D70B5164B164E0360164D044671
:1003F00002F026FB30464FF47A7100F0A9FB02F0C0
:1004000049FB02F01DFB28464FF47A7100F0A0FB77
:1004100002F040FB01210D48FFF72CFF00210C48A2
:10042000FFF728FF30460021FFF73CFF0021284658
:10043000FFF738FF4FF07E5002F060FB204670BDA2
:1004400058C90008B80B0020A00B0020900B00201A
:10045000800B002010B502F0F3FA1621104800F0CE
:100460000FFC02F017FB0F4B102422461846002108
:1004700003F0BCFA092102F034FA02F0E1FA272174
:10048000094800F0FDFB02F005FB084B2246002165
:10049000184603F0ABFA0821BDE8104002F021BA7B
:1004A000B80B0020900B0020A00B0020800B002038
:1004B0008160704770477047044B03F1080118339F
:1004C0004360002301608360704700BFC4C9000817
:1004D000806803681B681847806803685B68184772
:1004E000806803689B68184770B5124D044605F193
:1004F000BC06284602F03AF90028FAD0304602F04D
:10050000EBF8C0B27A2803D12046FFF7E1FFF0E70D
:10051000732803D12046FFF7DFFFEAE7712804D1F3
:1005200000212046FFF7DCFFE3E76428E1D1012149
:10053000F7E700BFD00B0020C36810B504460BB12D
:100540009B689847204610BD70B506460D4B46F88F
:10055000983B04465EB100F1B805AE4207D0103DAD
:10056000EB68002BF9D09B6828469847F5E704F123
:100570003800FFF7E1FF04F12800FFF7DDFF204618
:1005800070BD00BF10D2000810B50446FFF7DCFFB5
:10059000204600F081FD204610BD000010B5094B3B
:1005A000036003F120025C330446C0F8BC20C0F8AD
:1005B000C030BC3002F07EF82046FFF7C5FF204671
:1005C00010BD00BFF0D00008A0F1BC00E6E7A0F12C
:1005D000C000E3E710B50446FFF7E0FF204600F057
:1005E0005BFD204610BDA0F1BC00F3E7A0F1C00008
:1005F000F0E7000013B5094C4FF4165300930322A3
:1006000000230221204601F0DDFF054A054920466E
:1006100002B0BDE8104000F021BD00BFD00B0020AB
:10062000980100209D05000810B50C4CA268A46834
:10063000B4F1006F13460CD1131F094A53F8044F4D
:1006400042F8044F074CA242F8D1044A4FF000533D
:100650009360103043F8201010BD00BF00ED00E0A3
:10066000FCFFFF1F90010020431C10B5044604D17D
:1006700006480749272202F0C9F92046002100F068
:10068000A1F904F00F040120A04010BDAEC900087C
:10069000D8CB000870B504464B1C0E4621800DD007
:1006A000C1F3031000F01EF905463046FFF7DCFFEA
:1006B00005F1100318356060A360E56070BDB0F906
:1006C000000000F0ADB9000038B5B0F900300133DA
:1006D00005460C4604D107480749462202F096F920
:1006E000012CB5F900000CBF21460021BDE83840BF
:1006F00000F068B9A9C90008D8CB000838B5144B78
:100700001A68116911F0020F1C4607D0D3689807C8
:1007100004D56FF00203136102F04EF923681A69E1
:10072000510714D5DA68520711D56FF00402094D4C
:100730001A615C6A2B68E31AB3F57A7F07D300F07D
:10074000BDFE034B1B6804F57A729A632C6038BDBA
:10075000C4100020A80C002030B589B003A801A95E
:1007600001F030FA01F0FEF900230293234B0190CF
:100770001A6C234C42F008021A641A6C02F0080248
:100780000292029A1A6A42F008021A621A6A22F067
:1007900008021A62069AA3F50B3323604FF0FF3369
:1007A000E360184B02B14000B0FBF3F001380025C4
:1007B000606013482561A560656101F0E5FA3220AB
:1007C0001149FFF731FF114B0D484FF480225A6059
:1007D000294601F0A9FB0421094801F0A5FB236883
:1007E0000B4A596A1160126802F57A729A63DA68E4
:1007F000284642F00402DA6009B030BD00380240F9
:10080000C410002040420F00FD06000800E100E097
:10081000A80C00201FB502F013F96846052102F06C
:1008200060F8BDF90030013304D10E480E4934227E
:1008300002F0ECF8039B019A1A60962002F06CF922
:10084000BDF90030013304D106480749342202F0D3
:10085000DDF8019B039A1B041360962002F05CF9FB
:10086000DFE700BFA9C900082FCC000830B5054656
:10087000A1B00C4602F0E4F829466846224606F08C
:1008800051FD051E03DC02F005F921B030BD094B16
:100890001B6823B908480221032200F0E7FC00246A
:1008A0001DF804100448013400F0C0FDAC42F7D13B
:1008B000E9E700BFF80F0020741000200FB407B55F
:1008C00004A951F8040B0191FFF7D0FF03B05DF8C4
:1008D00004EB04B0704708B501F0BCFCBDE808406B
:1008E00000F0D2BD7FB50023072853D8DFE800F021
:1008F00004111E2B3852524500932A4B2A481A6B7A
:1009000042F001021A631B6B03F001030093009B8A
:1009100044E00193234B25481A6B42F002021A630C
:100920001B6B03F002030193019B37E002931D4B05
:100930001F481A6B42F004021A631B6B03F0040396
:100940000293029B2AE00393164B1A481A6B42F05B
:1009500008021A631B6B03F008030393039B1DE05B
:100960000493104B14481A6B42F010021A631B6B6D
:1009700003F010030493049B10E00593094B0F4808
:100980001A6B42F080021A631B6B03F0800305931D
:10099000059B03E00A4802F09BF8002007B05DF8D1
:1009A00004FB00BF00380240000002400004024087
:1009B00000080240000C024000100240001C0240EF
:1009C000A1CC000830B5431C87B005460C4604D1C5
:1009D00010481149812202F019F8C5F30310FFF7FE
:1009E00081FF05F00F050123AB4004F00F020193D6
:1009F0000A4B53F822300293C4F302130393C4F357
:100A0000C314032301A90493059400F079FD07B0F2
:100A100030BD00BFAEC90008C2CC000818CD000828
:100A2000431C70B506460C4604D10D480D49A6225C
:100A300001F0ECFFC6F30310FFF754FF06F00F05BB
:100A4000C1686B0003229A4021EA0202032CC260B3
:100A5000C26828BF00249C401443C46070BD00BF1E
:100A6000AEC90008C2CC000830B507EE101A284BFA
:100A700002681A60B5EEC07AF1EE10FA89B0054648
:100A800009D4F7EE007AB4EE677AF1EE10FAC8BF37
:100A9000B0EE677A01E09FED1F7AD5ED037AF8EEAC
:100AA000677A602267EE877A0192FCEEE77AAA689D
:100AB000C5ED047A17EE903AB3FBF2F302930023EC
:100AC000039304930593069307932B7D013B032B1C
:100AD0001CD8DFE803F008020406042404E008241C
:100AE00002E00C2400E00024094801A9224601F09C
:100AF000ABF910B1084801F0EBFF6B7D04482146CB
:100B000013B101F049FA01E001F024FA09B030BD57
:100B1000AC0C0020000000004CCD0008C368ABB155
:100B200090ED047A07EE903AB8EE477AF8EE677ADD
:100B3000C7EE277AB7EE007AF4EEC77AF1EE10FA34
:100B4000D4BF17EE900A17EE100A704700207047C6
:100B50002DE9F041D0F80080414C86B005460E46A4
:100B6000C4F80080FFF7DAFFD8F8202041F2111313
:100B7000134007465BB9D8F8202040F244431340A5
:100B80002BB9D8F8003023F00103C8F8003001A8D1
:100B9000694601F017F82B68324A93421BD00BD8F4
:100BA000A2F50062934216D002F58062934212D001
:100BB000B3F1804F51D10EE02B4A934210D002D8AE
:100BC000A2F5804204E0294A934209D002F58062EE
:100BD000934205D041E000F0C5FF0090049803E087
:100BE00000F0D8FF00900598009A2149B6F5803FA3
:100BF000ACBF4FF4FA730123AB60AB6800B1520095
:100C0000B2FBF1F212FB03F39BB2013B636063683A
:100C1000B3F5803F02D3174801F05AFFAA68731E4C
:100C2000B3FBF2F3B3F5803FE36002D3124801F067
:100C30004FFF00230A482361A36001F0BFF810B101
:100C40000E4801F045FFEE6028463946FFF70CFFDD
:100C50002268136843F00103136006B0BDE8F08119
:100C6000AC0C0020000C004000400140004401405A
:100C700040420F0063CD00087FCD00084CCD000836
:100C800070B5044688B008460E46554901F068FE26
:100C90002060013004D1534853492D2201F0B6FEA3
:100CA00030464F4901F078FE431C054604D14F48B9
:100CB0004D49312201F0AAFEC5F3C4234C4A2375E5
:100CC0002368C5F30045934265754FF000020BD1D0
:100CD0000092484A516C41F001015164526C02F09B
:100CE00001020092009A3BE0B3F1804F0BD10192D8
:100CF000404A116C41F001011164126C02F00102D2
:100D00000192019A2CE03C498B420BD10292394A64
:100D1000116C41F002011164126C02F002020292A5
:100D2000029A2DE035498B420BD10392314A116C66
:100D300041F004011164126C02F004020392039A60
:100D40002EE02F498B420BD12A4B04921A6C42F0B1
:100D500008021A641B6C03F008030493049B2EE042
:100D6000284A93420CD100230593224B5A6C42F43B
:100D700080325A645B6C03F480330593059B1EE05C
:100D8000214A93420CD1002306931A4B5A6C42F429
:100D900000325A645B6C03F400330693069B0EE04A
:100DA0001A4A93420BD100230793124B5A6C42F418
:100DB00080225A645B6C03F480230793079B0849E5
:100DC000304601F091FD0023E36023610123A680FA
:100DD000A360204644F62061FFF7BAFE08B070BD5C
:100DE00028CA000898CD0008B0CD000809CE000838
:100DF00000000140003802400004004000080040AC
:100E0000000C004000400140004401400048014007
:100E100007EE901AB8EEE77AD0ED037AF8EE677A2B
:100E2000C7EE277A17EE901AFFF71EBE704770477D
:100E3000036870B504465B6A9847236820461B69BF
:100E4000002101229847431C0646236804D120460E
:100E50009B6A9847304670BD1B69204600210222DC
:100E6000984723680546314600221B69204698476B
:100E7000236820469B6A9847284670BD08B5084BF2
:100E80001B685BB907480221032200F0EFF905480F
:100E90004FF41651BDE8084000F092BA08BD00BFFB
:100EA000F80F00207410002002284FF0000309DD25
:100EB000C21E074951F8220041F8223020B10368D0
:100EC0005B681847184670474FF0FF30704700BF07
:100ED000F40C0020022870B50C4615460FDC0E4BB2
:100EE0001B680BB9FFF7CAFF6619B44205D00B485F
:100EF00014F8011B00F09AFAF7E7284670BD033892
:100F0000074B53F8200020B10368BDE870401B6810
:100F100018474FF0FF3070BDF80F0020741000200C
:100F2000F40C0020022810B50C460ADC0B4B1B68A1
:100F30000BB9FFF7A3FF0A4800F05CFA207001200C
:100F400010BD0338074B53F8200020B10368BDE8FB
:100F500010409B6818474FF0FF3010BDF80F00207D
:100F600074100020F40C0020022807DD0338064B23
:100F700053F8200020B10368DB6818470120704750
:100F80004FF0FF30704700BFF40C0020022807DD4F
:100F90000338064B53F8200020B103681B6918473B
:100FA000002070474FF0FF30704700BFF40C002066
:100FB000022808B504D84FF400534B60002008BD48
:100FC00001F042FE092303604FF0FF3008BD08B571
:100FD000012001F03FFE704708B5FFF77CFCFFF7EA
:100FE000FAFF08BD704708B5FFF7FCFFBDE80840F1
:100FF000FFF72AB90C4A136810B51844EFF30881BB
:10100000884205D3094B0C221A604FF0FF3010BD07
:101010000749096821B1074C246821448842F1D26C
:101020001060184610BD00BF9C0100202411002054
:10103000F00C0020F40D0020074C08B5236805468D
:10104000986801F05FFF2368D86801F05BFF0DB17D
:10105000FFF7E0FBFEE700BFA4010020012070477E
:10106000002102F0D3BD01F05FBF7047704708B5A3
:10107000FFF7FBFF08BD08B5FFF7F8FF08BD00004C
:1010800010B502F053FB044610B9024801F020FDF0
:10109000204610BDE0CE000808B102F04FBB7047FB
:1010A000034610B553F8042B044602B903602268C6
:1010B0009A4204D003480449592201F0A7FC206851
:1010C00010BD00BF1CCF000830CF00080B4B10B57F
:1010D000036004460A48FFF7E3FF0023094A52F879
:1010E0002310A14204BF002142F823100133402BFA
:1010F000F4D10348FFF7D4FF204610BD98CF000875
:10110000E80C0020F40C00202DE9F3418846364914
:10111000054602F0E9FE044610B9FFF7AFFE5EE0B7
:101120002846324902F0E0FE18B9FFF7A7FE012475
:1011300055E028462E4902F0D7FE18B9FFF79EFE6B
:1011400002244CE02B48FFF7ABFF00242A4E56F850
:101150002430374633B10134402CF7D12548FFF70E
:101160009FFF3AE04FF0FF33224846F82430FFF764
:1011700097FF2B783A2B06D1284620496A4602F081
:101180002FFE009824E06846294601F0BDF9684624
:1011900001F0FCF910B946F824001EE0684601F0A1
:1011A000E3F918B1684601F0E8F911E0684601F08A
:1011B000D4F9054610B946F824000EE003686846E5
:1011C0009E6801F0BFF928F4803201462846B047F6
:1011D00047F8240008B1033401E04FF0FF34204603
:1011E00002B0BDE8F08100BF22CE000881CF000828
:1011F00029CE0008E80C0020F40C00207DCF000868
:10120000426818490346920110B588181C688C5032
:101210009A6842600246D96842F8081F196951600D
:101220005969916000F110011A6A8A600022C26156
:10123000C2848284C2858285B3F91A20013201D129
:10124000082305E0B3F9183001330CBF04230C2345
:101250004B6000F0D0FF20B10348BDE8104001F022
:1012600037BC10BDF80D0020C4CF0008F0B504460F
:1012700085B008460E464949154601F071FB4849BC
:101280000746284601F06CFB0146384601F04AFB50
:101290002060013004D143484349662201F0B6FB87
:1012A0002368424A93421DD002F5806293422FD0B8
:1012B000A2F55042934241D13D4B1A6A42F40032AA
:1012C0001A621A6A22F400321A62002202921A6C1E
:1012D00042F400321A641B6C03F400330293029B45
:1012E00001232AE0324B5A6A42F010025A625A6ACB
:1012F000002122F010025A6201915A6C42F0100251
:101300005A645B6C616003F010030193019B15E06C
:10131000274B5A6A42F020025A625A6A22F020028F
:101320005A62002203925A6C42F020025A645B6CAB
:1013300003F020030393039B0523636030461749A2
:1013400001F0D2FA2846164901F0CEFA721C03D0F9
:1013500030460121FFF764FB6B1C03D028460121B6
:10136000FFF75EFB4FF41653A3600023E360236195
:1013700063612362268365832046FFF741FF22686D
:101380000C4B9A4207D10C4B0C4801221A602146A3
:101390004C2202F02DFA05B0F0BD00BF90CB000842
:1013A000E0C90008DCCF0008F8CF000800100140B9
:1013B0000038024000440040F80F00207410002064
:1013C0008160FFF71DBF0000034B19604168034BAC
:1013D00043F82120704700BF1C100020FC0F0020A4
:1013E0004368034A9B01D3581868C0F34010704704
:1013F000F80D002038B5446805462846FFF7F0FF91
:101400000028FAD0A401034B1B595868C0F3080008
:1014100038BD00BFF80D00204368034A9B01D35834
:101420001868C0F3C0107047F80D002070B545680B
:1014300006460C463046FFF7EFFF0028FAD0AD0114
:10144000024B5B59C4F308045C6070BDF80D0020CA
:10145000DFF820D0002103E0074B5B5843500431F4
:101460000648074B42189A42F6D300F0CDFFFEF72C
:10147000B1FE704700800120C8D700089801002005
:10148000640B0020FEE7000008B50B4B1A6842F41D
:1014900000721A601A6842F480621A601A6842F494
:1014A00080721A60032000F017F80F20FFF754F93C
:1014B00000F024F8002008BD003C0240024A1368F6
:1014C00001331360704700BFC0100020014B186843
:1014D000704700BFC0100020074AD36823F4E063C0
:1014E0001B041B0C43F0BF6343F4003300F0070000
:1014F00043EA0023D360704700ED00E0704700002E
:101500002DE9F3410F6800220123934003EA070508
:101510009D4240F0B9804C6824F0100CBCF1020FE1
:1015200014D14FEAD20E00EB8E0E02F00706DEF861
:101530002030B6004FF00F0808FA06F823EA080832
:101540000B69B34048EA0303CEF820304FEA420E5D
:101550000323066803FA0EF3DB4303EA060804F0EC
:10156000030606FA0EF60CF1FF3C48EA0606BCF14B
:10157000010F066011D8866803EA060CCE6806FAE9
:101580000EF64CEA06068660466826EA050CC4F3A9
:10159000001696404CEA06064660C66803EA060C4A
:1015A0008B6803FA0EF64CEA0603C360E3006BD5C2
:1015B000394E00230193D6F844E04EF4804EC6F82D
:1015C00044E0766C06F480460196019E22F0030604
:1015D00006F1804606F59C3602F0030CD6F808802A
:1015E0004FEA8C0C4FF00F0E0EFA0CFE28EA0E0E8E
:1015F000DFF8AC80404519D003F1804303F5013397
:1016000098420ED003F5806398420CD003F58063B6
:1016100098420AD003F5806398420CBF0423052347
:1016200004E0012302E0022300E0032303FA0CF3A9
:1016300043EA0E03DFF864E0B360DEF80030EE4307
:1016400014F4803F14BF2B433340CEF80030DEF853
:101650000430DFF848E014F4003F14BF2B4333405C
:10166000CEF80430DEF8083014F4801F14BF2B438A
:101670003340CEF80830DEF80C30A40254BF06EA3E
:1016800003051D43054BDD600132102A7FF43CAF9A
:1016900002B0BDE8F08100BF00380240003C0140CC
:1016A000000002400368F7B5D907044603D4236855
:1016B0009A073BD488E0A74B9A6802F00C02042AF0
:1016C00007D09A6802F00C02082A0BD15B685B0213
:1016D00008D5A04B1B689F03E9D56368002BE6D1B2
:1016E000012034E19C4B22791A7063687BB1FFF7CB
:1016F000EDFE0546974B1B689E03D8D4FFF7E6FE28
:1017000041F28833401B9842F4D903201FE1FFF7D0
:10171000DDFE05468F4B1B689803C8D5FFF7D6FE44
:1017200041F28833401B9842F4D9EEE7894B9A681E
:1017300012F00C0F07D09A6802F00C02082A16D19A
:101740005B68590213D4834B1A68920702D5E2688A
:10175000012AC5D11968F82090FAA0F02269B0FAE0
:1017600080F021F0F80182400A431A602CE0E26820
:101770007A4BDAB101221A60FFF7A8FE05467548D8
:1017800003689F0705D4FFF7A1FE401B0228F6D986
:10179000BBE70268F82191FAA1F12369B1FA81F15E
:1017A00022F0F8028B40134303600DE01A60FFF74C
:1017B0008DFE0546674B1B689E0705D5FFF786FE25
:1017C000401B0228F6D9A0E72368180703D4236832
:1017D000590744D51FE06269614B72B101221A605A
:1017E000FFF774FE05465B4B5B6F9A07EFD4FFF77C
:1017F0006DFE401B0228F6D987E71A60FFF766FEE8
:101800000546544B5B6F9B07E1D5FFF75FFE401B1E
:101810000228F6D979E7002301934E4B1A6C42F067
:1018200080521A641B6C4F4A03F080530193019B52
:10183000136843F480731360FFF748FE0546494B75
:101840001B68DF050ED5484B227A1A70A368BBB11E
:10185000FFF73CFE05463F4B1B6F9E0708D5A2696C
:10186000EAB959E0FFF732FE401B0228E7D94CE7FE
:10187000FFF72CFE41F28833401B9842EBD944E736
:10188000FFF724FE0546334B1B6F9807E7D5FFF79C
:101890001DFE41F28833401B9842F4D935E72D4BA9
:1018A0009B6803F00C03082B3FF41AAF2F4D002365
:1018B000022A2B603ED1FFF709FE06462548036841
:1018C00099012BD447F6C07797FAA7F74FF4403623
:1018D000B7FA87F796FAA6F64FF07061B6FA86F671
:1018E00091FAA1F1E369226AB1FA81F11A43636ABC
:1018F000BB401A43A36A5B08013BB3401343E26A4F
:101900008A401343436001232B60FFF7DFFD044649
:10191000104B1B689A0107D5002018E0FFF7D6FD91
:10192000801B0228CAD9F0E6FFF7D0FD001B022871
:10193000EED9EAE6FFF7CAFD0446064B1B689B0199
:10194000EAD5FFF7C3FD001B0228F6D9DDE603B098
:10195000F0BD00BF0038024002380240000047429C
:10196000800E4742007000407038024060004742DD
:1019700010B51C4CA36803F00C03042B2ED0082BCD
:101980002ED1626802F03F03626847F6C07112F41C
:10199000800F626891FAA1F147F6C07000EA020078
:1019A00008BF114AB1FA81F120FA01F00EBFB2FB73
:1019B000F3F20E49B1FBF3F202FB00F3094A50685F
:1019C0004FF4403292FAA2F200F44030B2FA82F2BE
:1019D000D04001304000B3FBF0F010BD034810BD13
:1019E000014810BD003802400024F40000127A00C3
:1019F000584B1A6802F00F02914270B504460D462A
:101A00000AD82168880710D55348836823F0F0026C
:101A1000A3681343836008E0CAB21A701B6803F01E
:101A20000F038B42EDD0012070BDC90706D4494B8E
:101A30001A6802F00F0295425AD360E06368464A82
:101A4000012B03D1126812F4003F08E0991E01290E
:101A5000126802D812F0007F01E012F0020FE2D00B
:101A60003D498A6822F0030213438B60FFF72EFD85
:101A70006368012B06460ED1374B9B6803F00C03BD
:101A8000042BD4D0FFF722FD41F28833801B98420B
:101A9000F2D9032070BD022B0DD12F4B9B6803F0B0
:101AA0000C03082BC3D0FFF711FD41F28833801BD4
:101AB0009842F2D9EDE7032B14D1274B9B6803F032
:101AC0000C030C2BB3D0FFF701FD41F28833801BD0
:101AD0009842F2D9DDE7FFF7F9FC41F28833801B29
:101AE0009842D6D81C4B9B6813F00C0FF3D19EE79D
:101AF000EAB21A701B6803F00F03AB4293D121685E
:101B00004A0706D51448836823F4E052E368134378
:101B100083600B0741BF104A2169936823F4604337
:101B200044BF43EAC1039360FFF722FF0A4BF02250
:101B30009B6892FAA2F203F0F003B2FA82F2D34069
:101B4000064AD35CD840064B18600F20FEF704FE0F
:101B5000002070BD003C024000380240C1D00008A7
:101B6000A0010020084B4FF4E0529B6892FAA2F2C9
:101B700003F4E053B2FA82F2D340044AD35C044A3D
:101B80001068D840704700BF00380240C1D000083C
:101B9000A0010020084B4FF460429B6892FAA2F229
:101BA00003F46043B2FA82F2D340044AD35C044A9D
:101BB0001068D840704700BF00380240C1D000080C
:101BC000A00100200F2303600B4B9A6802F0030270
:101BD00042609A6802F0F00282609A6802F4E05271
:101BE000C2609B6803F46043DB080361034B1B681E
:101BF00003F00F030B60704700380240003C0240C6
:101C0000036A23F001030362036A426870B58469C2
:101C10000D6824F07304254323F002048B682343EA
:101C20000A4CA0420BD1CC688E6923F008032343F1
:101C30004C6922F44072344323F00403224342608F
:101C40004A6885614263036270BD00BF00000140C5
:101C5000036A23F480730362036A426830B5C4697F
:101C60000D6824F073042C438D6823F4007343EA59
:101C700005230C4DA8420ED1CD6823F4006343EA3E
:101C800005234D6922F4405242EA05128D6923F47E
:101C9000806342EA051242604A68C461C26303621B
:101CA00030BD00BF00000140036A23F4805303628B
:101CB000036A30B54468C2690D6822F4E64242EA1C
:101CC00005228D6823F4005343EA0533064DA842EC
:101CD00002BF4D6924F4804444EA85144460C26123
:101CE0004A680264036230BD0000014070477047DB
:101CF000224A036890420ED0B0F1804F0BD0A2F57B
:101D00007C42904207D002F58062904203D002F5F7
:101D10008062904214D14A6823F070031343174A3B
:101D2000904225D0B0F1804F22D0154A90421FD06A
:101D300002F5806290421BD002F58062904217D07B
:101D4000104A904214D002F58062904210D002F501
:101D5000806290420CD003608B68C3620B68836220
:101D6000064B984204BF0B6903630123436170472C
:101D7000CA6823F440731343EDE700BF000001403D
:101D8000000400400040014010B50446A0B190F8A6
:101D9000393003F0FF021BB980F83820FFF7A6FFA7
:101DA000022384F839302068211DFFF7A1FF0123A9
:101DB00084F83930002010BD012010BD10B5044654
:101DC000A0B190F8393003F0FF021BB980F8382039
:101DD000FFF78DFF022384F839302068211DFFF7BB
:101DE00087FF012384F83930002010BD012010BD89
:101DF000036A23F010030362036A426830B5846902
:101E00000D6824F4E64444EA05248D6823F0200399
:101E100043EA05130B4DA8420ED1CD6823F0800391
:101E200043EA05134D6922F4406242EA85028D6956
:101E300023F0400342EA850242604A68846182637B
:101E4000036230BD0000014038B590F83830012BF6
:101E500004460D464FF0020058D0012384F8383074
:101E600084F839000C2A4BD8DFE802F0074A4A4AC6
:101E7000174A4A4A294A4A4A39002068FFF7C0FEF1
:101E800023689A6942F008029A619A6922F0040272
:101E90009A6199692A690A430FE02068FFF7A8FF51
:101EA000236829699A6942F400629A619A6922F466
:101EB00080629A619A6942EA01229A6120E0206870
:101EC000FFF7C6FE2368DA6942F00802DA61DA69D0
:101ED00022F00402DA61D9692A690A430FE0206816
:101EE000FFF7E2FE23682969DA6942F40062DA61E9
:101EF000DA6922F48062DA61DA6942EA0122DA619F
:101F00000123002084F8393084F8380038BD10B53A
:101F10000123046A8B4024EA03030362036A8A40B4
:101F20001343036210BD000010B50446012200688F
:101F3000FFF7EDFF2368064A934202BF5A6C42F452
:101F400000425A641A6842F001021A60002010BD73
:101F50000000014010B5044601220068FFF7D7FFDA
:101F60002368064A934202BF5A6C42F400425A6404
:101F70001A6842F001021A60002010BD0000014002
:101F800010B50423046A8B4024EA03030362036A46
:101F90008A401343036210BD10B504460422006852
:101FA000FFF7EEFF23685A6C42F400425A641A6845
:101FB00042F001021A60002010BD00002DE9F04738
:101FC00006683369044623F44052C3682169C06936
:101FD0001343A2683361F3681143626923F4164323
:101FE0000A43024323F00C031343F360736923F4A1
:101FF0004072A369B0F5004F43EA020373617B4B63
:102000007CD19E4203D003F580639E4231D1FFF71D
:10201000C1FD636819254FEA43086843B0FBF8F82F
:10202000FFF7B8FD676868437F00B0FBF7F7FFF77D
:10203000B1FD63684FF064095B006843B0FBF3F0E7
:10204000B0FBF9F009FB1077FFF7A4FDB8FBF9F836
:102050006268FF003237B7FBF9F707F0F80768430B
:1020600052004FEA08187F00B0FBF2FAFFF792FD2A
:1020700030E0FFF777FD636819254FEA43086843AE
:10208000B0FBF8F8FFF76EFD676868437F00B0FBB0
:10209000F7F7FFF767FD63684FF064095B0068437B
:1020A000B0FBF3F0B0FBF9F009FB1077FFF75AFD36
:1020B000B8FBF9F8FF0062683237B7FBF9F707F0B1
:1020C000F807684352004FEA08187F00B0FBF2FAA5
:1020D000FFF748FD454360684000B5FBF0F0B0FBFA
:1020E000F9F009FB10A2D2003232B2FBF9F303F08F
:1020F000070343441F44B760BDE8F0879E4202D007
:102100003B4B9E422ED1FFF745FD6768192568437A
:10211000BF00B0FBF7F7FFF73DFD636868439B0026
:10212000B0FBF3F8FFF736FD63684FF064096843CE
:102130009B00B0FBF3F0B0FBF9F009FB10831B012F
:102140003233B3FBF9F303F0F008FFF723FDB7FBDD
:10215000F9F76268684392003F01B0FBF2FAFFF7BB
:1021600019FD2DE0FFF7FEFC676819256843BF00E5
:10217000B0FBF7F7FFF7F6FC636868439B00B0FB22
:10218000F3F8FFF7EFFC63684FF064099B006843C6
:10219000B0FBF3F0B0FBF9F009FB10831B01323305
:1021A000B3FBF9F303F0F008FFF7DCFCB7FBF9F73A
:1021B0006268684392003F01B0FBF2FAFFF7D2FC7D
:1021C000454360688000B5FBF0F0B0FBF9F009FB17
:1021D00010A212013232B2FBF9F202F00F0208EB48
:1021E00002033B44B360BDE8F08700BF001001402C
:1021F00000140140704710B5044640B390F83930E0
:1022000003F0FF021BB980F83820FFF7F3FF2268C4
:10221000242384F83930D36823F40053D360204654
:10222000FFF7CCFE23681A6922F490421A615A69BA
:1022300022F02A025A61DA6842F40052DA60002081
:102240002023E06384F8393084F83A3010BD01204F
:1022500010BD0000174A1849936803F00C03042BC3
:1022600003D0082B03D0154B18E0154B16E050682F
:10227000536810F4800F03F03F03506814BF104AF6
:102280000E4AB2FBF3F30B4A5268C2F30142C0F3A9
:102290008810013243435200B3FBF2F30B60054B4D
:1022A000084A9B68C3F30313D25C0B68D3400B60EE
:1022B000704700BF00380240A00100200024F40055
:1022C00000127A00D1D0000810B594B0214B002143
:1022D00001911A6C42F080521A641B6C1E4A03F082
:1022E00080530193019B0291136823F4404343F40C
:1022F00000431360136803F440430293029B0123DD
:10230000089300B1052309934FF480030F9308232A
:1023100010934FF4A873119304230224129308A876
:1023200007230E941393FFF7BDF978B90F23039396
:1023300005904FF480530790214603A80494069318
:10234000FFF756FBB0FA80F0400900E0002014B01F
:1023500010BD00BF003802400070004030B595B09D
:102360000024204B01941A6C42F080521A641B6CBA
:102370001D4A03F080530193019B0294136823F4D8
:10238000404343F4004313601368099403F440434B
:102390000293029B0F940323089301230B931023B2
:1023A0000C9310934FF4A8731193042302251293F6
:1023B00008A807230E951393FFF774F978B90F2334
:1023C000039305904FF480530790294603A8049582
:1023D0000693FFF70DFBB0FA80F0400900E02046BD
:1023E00015B030BD003802400070004008B5012033
:1023F000FFF76AFF30B9FFF767FF18B9FFF7AEFFC5
:1024000000B9FEE708BD0000174AD2F8883010B5C1
:1024100043F47003154CC2F888302368002143F060
:1024200001032360A160236823F0847323F48033C5
:1024300023600F4B6360236823F4802323604FF0F5
:102440000063E16093600B4B0B4A1A60FFF71CF8C6
:10245000FFF7CCFF236A43F008032362236A23F0CB
:102460000803236210BD00BF00ED00E00038024009
:1024700010300024A00100200024F400054B18684F
:1024800030B901221A60044B044A1A60FEF764B99D
:10249000704700BF20100020C4100020000C004036
:1024A00008B5044B1B680BB9FFF7E8FF024B586AED
:1024B00008BD00BF20100020000C0040044B054A5E
:1024C00013605863DA6842F00202DA60704700BFB6
:1024D000000C0040C4100020034B044A1360DA686B
:1024E00022F00202DA607047000C0040C4100020A5
:1024F000034A044B13606FF002021A61704700BF79
:10250000C4100020000C004010B50023036043609D
:102510000A782F2A044613D14A788AB1481C2060D1
:10252000194623681A782F2A02D10133236004E068
:102530001AB1013301312360F3E700F03FFB606023
:10254000204610BD00687047406808B520B100F013
:10255000E8FA431E5842584108BD10B50446FFF73B
:10256000F3FF00B1606810BD406808B520B100F00D
:10257000D8FAB0FA80F0400908BD10B50446FFF75C
:10258000F3FF10B1606800B1043810BD406800303E
:1025900018BF012070477047A0F1BC00FFF7FBBFD8
:1025A0007047A0F1BC00FFF7FBBF00F0F0B8A0F14E
:1025B000BC00FFF7FABF00F0EDB8A0F1BC00FFF7D8
:1025C000FABF000038B504461D46049B00F0F2F83F
:1025D00004F1BC00294600F04BF8064B03F1080259
:1025E000226003F128026433C4F8BC20C4F8C03070
:1025F000204638BDE8D0000800207047F8B50368D1
:102600005B6A0E4604468F1898473546BD4208D08F
:10261000236815F8011BDB6A204698470130F5D185
:102620002F46236820469B6A9847B81BF8BDF8B52B
:1026300003685B6A0E4604468F1898473546BD42CC
:1026400008D0236820461B6B9847431C02D005F82E
:10265000010BF4E7236820469B6A9847A81BF8BD46
:10266000002070470020704700207047002070470E
:102670001FB5044600F0C2FA0B4B0C4903F10802E7
:102680004433636000236361226001A8224601F0A5
:1026900085FB074901A800F0ABFD6061FEF7E0FC97
:1026A000204604B010BD00BF58D100087DCF0008FF
:1026B000A4D1000810B5074B03F1080244330446C7
:1026C00002604360406900F03DFB204600F0AAFA3A
:1026D000204610BD58D1000838B5036804465B6A2F
:1026E0009847606900F00EFC6069FEF7BCFC236847
:1026F00005469B6A20469847284638BD7047704774
:10270000704710B580B1146853680CB9DA070BD55F
:1027100013F0010F4FEA63031CBFC2581459184449
:102720002346BDE81040184710BD0368184708B19C
:102730000B6803607047704770B50901441801F1D8
:102740009805D4F8A43005442BB90648064940F250
:10275000E71200F05BF9D4F8A43028461B68BDE806
:1027600070401847B4D10008B9D1000838B5054603
:10277000044655F84C3B1B6898472846FEF730FE48
:10278000236805465B6820469847284638BD4C308C
:10279000FEF730BE10B54C300C46FEF747FE204623
:1027A00010BDC36810B504460BB19B68984720461E
:1027B00010BD00002DE9F3479046024600259A46D9
:1027C0002B4B42F8083B009502AB01950446894625
:1027D00013E90300274B82E80300236148F2070353
:1027E0006361254BE561A46122626362BFF36F8F71
:1027F000BFF34F8F04F14C0604F1980765636564DD
:1028000084F8485084F84950304629464C2201F05B
:10281000EDF8C4F8A450C4F8B450C4F8B8A03846D1
:10282000FFF7BFFF2FB1154BC4F89830144BC4F815
:10283000A43004F1A8052846FFF7B3FF2DB10F4BD4
:10284000C4F8A8300E4BC4F8B4304246304649466E
:10285000FEF70CFD3046D4F8B810FEF7B1FD304657
:1028600008492246FEF7B0FD204602B0BDE8F087D9
:1028700010D2000801A090E803270008FD260008F8
:10288000A8D100083927000838B5B0F90030013365
:1028900004460D4604D105480549342200F0B6F837
:1028A000E268636805B91B04136038BDA9C9000854
:1028B0002FCC000870B50E4604461546FDF7EAFE1B
:1028C00001360DD020462946FFF7DEFF20460121C4
:1028D000FDF7FAFE20460021BDE87040FDF7EFBE8F
:1028E00070BD0022FFF7E6BF10B50446013001D1EC
:1028F00010BD0C31B1F900305A1C0BD0A342F8D1F5
:1029000020468968FEF75EF820460021BDE81040A9
:10291000FEF786B80248BDE8104000F0D9B800BF05
:1029200020D20008884208B50AD0431C07D00131E4
:1029300006D0044800F0CCF84FF0FF3008BD084640
:1029400008BD00BF31D20008B1F900305A1C05D0D3
:10295000834201D1486870470C31F5E7184670474B
:10296000421C10B5044607D0FFF7EEFF431C044697
:1029700002D1024800F0ACF8204610BD42D2000857
:10298000B1F900305A1C05D0834201D188687047E4
:102990000C31F5E718467047421C10B5044607D0C5
:1029A000FFF7EEFF431C044602D1024800F090F806
:1029B000204610BD62D20008014800F003B800BFF5
:1029C00094D20008036870B5DB68044698476368D2
:1029D0005A6823681AB99B68BDE8704018475B685D
:1029E00015689847281A0028636808DC5A689168B7
:1029F00059601B68002BEAD050689847E7E72168C8
:102A00005A680B691068BDE87040184770B50646F3
:102A10000D46144600F014F831462A462346034872
:102A2000FDF74CFFBDE87040FDF7F4BE9CD20008F6
:102A3000EFF3108000F0010080F00100704700000B
:102A400038B5FFF7F5FF80F00100C5B272B60C4C47
:102A500023680BB90B4B1D702368013304D10A485E
:102A60000A493522FFF7D2FF23682BB125B9084860
:102A700006493922FFF7CAFF23680133236038BDB6
:102A80002C10002030100020CDD20008F3D2000816
:102A900036D3000810B50A4C236883B1FFF7C8FF8E
:102AA00020B1084808494A22FFF7B0FF2368013BDC
:102AB000236023681BB9054B1B7803B962B610BDB0
:102AC0002C10002036D30008F3D20008301000206C
:102AD0000FB407B504A951F8040B0191FDF7C6FE28
:102AE000012000F0B7F838B50446FFF7D9FC0546D9
:102AF000FFF7D6FC401BA042FAD338BD07EE100A00
:102B0000DFED047A67EE277AFDEEE77A17EE900A9A
:102B1000FFF7E9BF002474494FF47A735843FFF775
:102B2000E2BF007B7047000038B504460A4B0360E3
:102B3000002343600D46A16002730848FEF7B0FA17
:102B400025B1074B1A6862601C6000E065600348AD
:102B5000FEF7A6FA204638BD58D3000838100020EA
:102B60003410002010B50D4B036004460C48FEF7EE
:102B700097FAA3686BB10B4A1368A34202D163684A
:102B8000136006E05A68A24201D01346FAE7626871
:102B90005A600348FEF784FA204610BD58D3000857
:102BA000381000203410002010B50446FFF7DAFF7B
:102BB0002046FEF771FA204610BD000070B50646AB
:102BC0000C480D46FEF76CFA0B4B1C686CB1A06804
:102BD00048B131462A4601F061FB20B9A06801F0F6
:102BE000EFFAA84201D06468F0E70248FEF758FA0D
:102BF000204670BD381000203410002010B5074B5F
:102C00000446002240F8043BFFF78EFF044B03F11B
:102C100008023C3322606360204610BD98CF000854
:102C200060D3000810B5074B03F108023C3304469B
:102C3000026040F8043FFFF795FF2046FEF746FA92
:102C4000204610BD60D30008014B1868704700BFD4
:102C5000A401002008B50021044604F08FFB044BBA
:102C60001868C36B03B198472046FEF7E5F900BF2B
:102C7000A4D3000870B5002948D005460C4610B111
:102C8000836B002B48D0626EB4F90C30D00740D46F
:102C9000990530D52146284600F05CF8E36A0646DF
:102CA00033B1E169284698470028B8BF4FF0FF3696
:102CB000A3891A063CD4216B41B104F14003994227
:102CC00002D0284609F058F800232363616C21B133
:102CD000284609F051F80023636400F01DFA636E82
:102CE0000022DB07A2811FD5A06D00F0A1FC00F03F
:102CF00019FA304670BDA06D00F09CFCB4F90C30A0
:102D0000002BC7D1666E16F0010616D0002630469D
:102D100070BD002BFAD0BDE700F080F9626EB4F907
:102D20000C30D007F5D4B3E7A06D00F085FCDBE7ED
:102D30002169284609F020F8BDE7A06D00F07CFC71
:102D4000304670BD024B01461868FFF793BF00BFC5
:102D5000A4010020B1F90C309AB22DE9F0410C46E3
:102D60001107804644D4626843F40063002AA381BB
:102D700059DDA56A002D53D000229BB2D8F800601F
:102D8000E169C8F8002013F4805240F083800123E9
:102D90004046A847421C4AD0A389A56AE1695B075F
:102DA00005D56268236B801A0BB1E36BC01A02462B
:102DB00000234046A847471C45D0B4F90C3022698F
:102DC000226023F400630022A381DB04626000D54B
:102DD0002065216BC8F8006011B304F140039942EB
:102DE00002D0404608F0C8FF00202063BDE8F08113
:102DF0002669AEB12568266092070CBF636900237F
:102E0000AD1BA3600AE02B463246676AE169404683
:102E1000B8470028A5EB000506442BDD002DF2DCA9
:102E20000020BDE8F081E26B002AA2DCF8E7D8F8C8
:102E30000030002BB0D01D2B01D0162B2CD1C8F8A0
:102E400000600020EDE7D8F800101D291AD8154BB6
:102E5000B4F90C20CB40DB4313F0010314D12569F6
:102E600022F40062C4E90053D504A281B1D500293F
:102E7000AFD1ADE7A38943F04003A3814FF0FF300A
:102E8000BDE8F081B4F90C2042F04002A2814FF07D
:102E9000FF30C6E7206D82E7A38943F04003A3819A
:102EA000BFE700BF0100402038B50D46044608B119
:102EB000836BA3B1B5F90C00B8B16B6EDB0701D41D
:102EC00081051AD520462946FFF744FF6B6EDA07C5
:102ED000044602D4AB899B050AD5204638BD00F0D4
:102EE0009DF8B5F90C000028E7D10446204638BD0E
:102EF000A86D00F0A1FB204638BDA86D00F09AFB3C
:102F0000E0E700BF20B1054B01461868FFF7CCBFD2
:102F1000034B0449186800F03BBB00BFA40100202C
:102F2000A4D30008A92E000838B5184B1D68044624
:102F30000DB1AB6BB3B1636ED80702D4A389990509
:102F40001FD56368013B002B63600FDB23685A1CAD
:102F500022601D78636EDA0702D4A3899B050BD526
:102F6000284638BD284600F059F8E4E728462146AF
:102F700000F032FE0546EDE7A06D00F05DFB28464F
:102F800038BDA06D00F056FBDBE700BFA4010020B8
:102F900010B5002304468181C281C0E900338360FB
:102FA0004366C0E904338361194608225C3000F0AF
:102FB0001DFD07480749084A084BE362C4E907407A
:102FC000C4E9091204F15800BDE8104000F02EBB1E
:102FD000393E0008613E00089D3E0008BD3E0008E5
:102FE000014900F0D5BA00BF752C000870B54A1E23
:102FF000682505FB02F50E4605F1740108F0B8FEE0
:10300000044640B100210C30666005F16802216081
:10301000A06000F0EBFC204670BD00BF10B5044678
:10302000124800F007FBA26BD2B904F53B731048BD
:10303000C4F8E8320321C4F8E022E063C4F8E412E3
:1030400060680421FFF7A4FF01220921A068FFF7AF
:103050009FFF02221221E068FFF79AFF0123A3637A
:103060000248BDE8104000F0E7BA00BF0C11002094
:10307000E12F000870B50646244800F0DBFA244B27
:103080001D68AB6B83B305F53875D5E90134013B99
:1030900005D525E0013B5A1C04F1680420D0B4F9A1
:1030A0000C20002AF6D100251A4BE36004F15800E9
:1030B000656600F0BBFA154800F0BEFA2560C4E969
:1030C0000155C4E90455A5612946082204F15C00B4
:1030D00000F08CFCC4E90C55C4E91155204670BDC4
:1030E0002C682CB12546D0E72846FFF797FFCAE7A2
:1030F00004213046FFF77AFF044628600028F1D10A
:10310000024800F099FA0C233360E7E72011002011
:10311000A4D300080100FFFF014800F08BBA00BFF4
:1031200020110020014800F087BA00BF20110020C4
:10313000F0B5134683B00F4601AA1946064605F0BE
:103140004BF9002836D005463046FFF793FF04467A
:1031500000282FD039464FF4DB73019A304600F037
:103160008FFC071E30DB636EDB0715D51C4B1D493A
:103170001D4AE781C4E90743C4E909121B4BA58135
:10318000E905E3620FD4636EDA0702D4A3899B05D5
:1031900014D5204603B0F0BDA3899805E6D4A06DF0
:1031A00000F048FAE2E7304602230022214600F010
:1031B00027F8E8E70024204603B0F0BDA06D00F03A
:1031C0003BFA204603B0F0BD0025FFF7A5FFA5811F
:1031D000A06D00F02DFA2C46FFF7A4FFD9E700BF41
:1031E000393E0008613E00089D3E0008BD3E0008D3
:1031F000024B0A4601461868FFF79ABFA401002057
:1032000000F000B82DE9F04F0C4697B091461F46EC
:10321000064618B1836B002B00F08F80626EA38985
:10322000D20702D49D0540F1A18003F48473B3F565
:10323000847F00F09680D4F82880B8F1000F7FD00A
:10324000012F13D0022F00F08780002F00F0848020
:10325000636E1622D907326002D4A3899A0577D506
:103260004FF0FF35284617B0BDE8F08F21463046B5
:10327000FFF71AFEA38913F4805240F03181E1690F
:103280003B463046C047411C054600F0DC80A38920
:1032900022695F0740F1E8806368216BED1A09B18C
:1032A000E06B2D1AA9444FF0010A0027002A00F014
:1032B000E580B4F90C3040F61A019AB20A4208D1FE
:1032C000520566D4944A904500F0FB8043F40063B5
:1032D000A38121463046FFF7E7FD002840F0BF807C
:1032E0003B464A46E1693046C047013000F0B780AE
:1032F000216B41B104F14003994202D0304608F0FD
:103300003BFD00232363A3892269226023F4026327
:103310000021A3816160082204F15C0000F066FBDB
:10332000656E15F0010503D1A3899B0540F19380DB
:103330000025284617B0BDE8F08FFFF76FFE6DE758
:10334000636E1D22D80732608AD4A3899A0587D478
:10335000A06D00F071F983E74FF0000A226955462D
:10336000A4E721463046FFF79FFD64E7A06D00F01B
:1033700061F9A38959E7019AB4F90C3002F470425B
:10338000B2F5004FA2D143F480634FF48062A38171
:10339000E264002F40F08880CB46BAF1000F72D172
:1033A000A389DB047ED452460123E1693046C0473D
:1033B000451C8ED06368216BC51A1A46002968D057
:1033C000E06B2D1AA26BD4F810C01D44A2EB0C02C6
:1033D000AD1A0244AB4580F28580E56CE1696D422F
:1033E00005EA0B052A4600233046C04701303FF46A
:1033F00070AF2369216B23600023636041B104F146
:103400004003994202D0304608F0B6FC0023236303
:10341000A389BBEB050B23F02003A38110D0214629
:10342000304600F04DFB00287FF453AF63685B45E6
:10343000FFF44FAF2268A3EB0B035A44C4E9002307
:103440000822002168E7636EDA073FF509AFA38918
:103450009B053FF505AFA06D00F0EEF802E7636E47
:10346000D9077FF5FAAEFBE618077FF51BAF236897
:10347000002B3FF417AF9B1A1D4413E7214630463B
:1034800000F00AF915E7216B11B16368E06B99E769
:1034900062682068D4F810C0A0EB0C002D1A02441A
:1034A000002197E7206D85E76A46B4F90E10304693
:1034B00000F034F800287FF40CAF049B09EB030BF9
:1034C0006BE7B4F90E100029FFF600AF6A463046EC
:1034D00000F024F800283FF44EAFB4F90C30F5E6C4
:1034E000256DD5E6AB185B457FF677AFABEB0505F1
:1034F0000CEB0503521BC4E9003241B104F1400357
:10350000994202D0304608F037FC00232363A38998
:1035100023F02003A38193E79D3E000838B50B46B6
:10352000074C05461146184600232360FDF740FD71
:10353000431C00D038BD2368002BFBD02B6038BD66
:10354000241100202DE9F04110F538771BD0884672
:103550000026D7E90154013D0FD4A389012B05F1C1
:10356000FF35204605D9B4F90E30013301D0C047EC
:1035700006436B1C04F16804EFD13F68002FE8D1CB
:103580003046BDE8F0813E463046BDE8F08100BFE0
:103590002DE9F84310F538771FD0884606464FF0DE
:1035A0000009D7E90154013D11D4A389012B05F18C
:1035B000FF352146304606D9B4F90E30013302D02A
:1035C000C04749EA00096B1C04F16804EDD13F686B
:1035D000002FE6D14846BDE8F883B9464846BDE825
:1035E000F88300BF70B50D4E0D4D761BB61006D09A
:1035F0000024013455F8043B9847A642F9D1094EFE
:10360000094D761B09F098F9B61006D00024013454
:1036100055F8043B9847A642F9D170BD500B0020E5
:10362000500B0020600B0020500B0020704700BFA3
:10363000704700BF704700BF704700BF70B50C46B1
:10364000B1F90E10002996B015461E460FDAA28970
:10365000002312F08000336004D14FF480632B60AC
:1036600016B070BD402218462A6016B070BD6A467A
:10367000FFF754FF0028EADB019B03F47043A3F536
:103680000053B3FA83F35B094FF480624FF4006098
:1036900033602A6016B070BD8A8992070B4606D542
:1036A00001F1430201211A60C3E90421704770B59A
:1036B00082B001AB6A460C460546FFF7BFFF009992
:1036C0000646284608F054FBB4F90C30D8B1164928
:1036D000E963019A0099206043F08003A381C4E963
:1036E00004011AB93343A38102B070BD2846B4F96E
:1036F0000E1004F0ABFEA0B1A38923F0030343F046
:1037000001031BB2EEE79A05EED423F0030304F1A4
:10371000430243F002030121A3812260C4E9042192
:10372000E2E7B4F90C30DDE7E12F0008024B014677
:10373000186808F01DBB00BFA4010020024B014621
:10374000186808F019BB00BFA401002000000000A9
:1037500001F0FF01102A2BDB10F0070F08D010F842
:10376000013B013A8B422DD010F0070F42B3F6D146
:10377000F0B441EA012141EA014122F007047FF05F
:1037800000070023F0E80256083C85EA010586EAB6
:10379000010685FA47F5A3FA87F586FA47F6A5FAF2
:1037A00087F68EB9EED1F0BC01F0FF0102F00702FE
:1037B00032B110F8013B013A83EA010313B1F8D1A9
:1037C0000020704701387047002D06BF354603388A
:1037D000073815F0010F07D1013015F4807F02BFC3
:1037E000013015F4C03F0130F0BC0138704700BF14
:1037F000844641EA000313F003036DD1403A41D3FC
:1038000051F8043B40F8043B51F8043B40F8043BBA
:1038100051F8043B40F8043B51F8043B40F8043BAA
:1038200051F8043B40F8043B51F8043B40F8043B9A
:1038300051F8043B40F8043B51F8043B40F8043B8A
:1038400051F8043B40F8043B51F8043B40F8043B7A
:1038500051F8043B40F8043B51F8043B40F8043B6A
:1038600051F8043B40F8043B51F8043B40F8043B5A
:1038700051F8043B40F8043B51F8043B40F8043B4A
:10388000403ABDD2303211D351F8043B40F8043BEA
:1038900051F8043B40F8043B51F8043B40F8043B2A
:1038A00051F8043B40F8043B103AEDD20C3205D3FA
:1038B00051F8043B40F8043B043AF9D2043208D0F2
:1038C000D2071CBF11F8013B00F8013B01D30B8864
:1038D00003806046704700BF082A13D38B078DD042
:1038E00010F003038AD0C3F10403D21ADB071CBF14
:1038F00011F8013B00F8013B80D331F8023B20F87E
:10390000023B7BE7043AD9D3013A11F8013B00F8B6
:10391000013BF9D20B7803704B7843708B7883703E
:10392000604670478842F0B40DD98B1883420AD99B
:10393000841832B1224613F8014D02F8014D994224
:10394000F9D1F0BC70470F2A49D940EA01039B071F
:1039500047D1A2F110031B0901F1200707EB031760
:1039600001F1100400F1100554F8106C45F8106CCA
:1039700054F80C6C45F80C6C54F8086C45F8086C5D
:1039800054F8046C45F8046C1034BC4205F1100581
:10399000EAD1013302F00F051B01032D1944034442
:1039A00021D91F1F0E462C46043C56F804CB47F87D
:1039B00004CF032CF8D82C1F24F003040434234430
:1039C000214402F00302002ABBD0013B0A4411F853
:1039D000014B03F8014F9142F9D1F0BC7047034607
:1039E000F1E70346F1E72A46EDE700BFF0B48607AA
:1039F00043D0541E002A3ED0CAB2034602E014F15E
:103A0000FF3438D303F8012B9D07F8D1032C2BD9B1
:103A1000CDB245EA05250F2C45EA054516D9A4F196
:103A200010073F0903F1200606EB071603F1100209
:103A300042E9045542E902551032B242F8D104F08D
:103A40000F040137032C03EB07130DD91E46224642
:103A5000043A032A46F8045BFAD8221F22F0030234
:103A60000432134404F003042CB1C9B21C4403F81B
:103A7000011B9C42FBD1F0BC704714460346C5E7CE
:103A800070B50D46084C114606461A4628460023D6
:103A90002360FDF739FB431C00D070BD2368002B69
:103AA000FBD0336070BD00BF24110020838903F078
:103AB0000903092B01D000207047FFF723BA00BF8C
:103AC000F8B50C46054610B1836B002B40D0B4F915
:103AD0000C309AB2970407D4626E43F4005322F478
:103AE00000526266A3819AB200219606616038D4C2
:103AF00050071AD4D10662D512074ED443F00403FE
:103B0000A3812369002B55D0B4F90C70BEB2B30762
:103B10002AD12269226028466369256AE169A8479B
:103B20000028606017DD0020F8BD216B0029E8D077
:103B300004F14003994202D0284608F01DF9E36BD6
:103B4000636000202063002BDBD0A36B2360F8BDF3
:103B5000FFF764FABBE7B4F90C3016D143F0200349
:103B6000A3814FF0FF30F8BD194B1A4918680123A3
:103B7000A38106F00906FFF7E5FC092EA781C8D14D
:103B800021462846FFF7E6F8C3E743F0400300224A
:103B9000A38162604FF0FF30F8BD21462846FFF751
:103BA00083F90028DDD1B4F90C30A060A06123F0C6
:103BB0000803A3E721462846FFF76EFDA4E743F07C
:103BC000400309222A604FF0FF30A381F8BD00BFF7
:103BD000A4D30008AD3A000838B50C46054608B134
:103BE000836B63B128462146FFF76AFF50B9D4E9D9
:103BF0000023013B511CC4E90013107838BDFFF7C6
:103C00000DFAEFE74FF0FF3038BD00BF00290CBFC1
:103C1000022200224FF4806300F000B82DE9F04347
:103C20005D4C256883B00446884616461F4615B18C
:103C3000AB6B002B7ED0022E05D0012E00F2A980A6
:103C4000002FC0F2A680636EDA0735D521462846DC
:103C5000FFF72AF9216B41B104F14003994202D0E8
:103C6000284608F089F800232363B4F90C300022B9
:103C70001806A261626061D423F44A6323F003034F
:103C8000022EA3811FD10025616E002004F14302A2
:103C900043F00203A060C9074FF00100A381226036
:103CA000C4E9042004D49B0502D4A06DFFF7C4FC32
:103CB000284603B0BDE8F083A3899B05C6D4A06D58
:103CC000FFF7B8FCC2E701AB6A4621462846FFF77A
:103CD000B5FCA3891843A081002F36D1009F384638
:103CE000FFF724FD8046002842D0A38943F08003DB
:103CF000A381AB6B7BB3009AB4F90C30C4F800809D
:103D0000BA421CBF43F40063A381012E04BF43F0F9
:103D10000103A3819BB213F00802C4E904871ED1FA
:103D2000A260656E15F00105BDD00025284603B0E0
:103D3000BDE8F0832846FFF771F97CE72169284642
:103D400008F01AF8B4F90C3096E7B8F1000FC6D0B5
:103D5000AB6B002BCFD12846FFF760F9CBE7DA0732
:103D600004D57F420022A761A260DAE7A760D8E706
:103D7000DDF80090B94504D1B4F90C304FF0FF35AF
:103D800082E74846FFF7D2FC80460028F4D04F4631
:103D9000ABE74FF0FF358BE7A40100200EB430B540
:103DA0009CB01FAB0C4C0D4D53F8042B01930146F6
:103DB00002910691206802A96FF000440794CDE9B2
:103DC000044500F0E9FA029B00221A701CB0BDE81D
:103DD000304003B0704700BFA40100200802FFFF7D
:103DE0000EB470B59DB021AC4FF4017254F8045B71
:103DF000ADF814200290069000F0E2F90C4B01940B
:103E000001462A46039107910A4E18680A962346EE
:103E10004FF6FF75002402A90E941394ADF81650C6
:103E200001F0A4FF1DB0BDE8704003B0704700BFB3
:103E3000A40100205D3E000810B50C46B1F90E103B
:103E400005F000F8002803DB236D0344236510BD53
:103E5000A38923F48053A38110BD00BF00207047C5
:103E60002DE9F0411646B1F90C201F46D3050C464A
:103E70000546B1F90E1007D50022022304F036FBE7
:103E8000B4F90C20B4F90E1022F48052A2813B4602
:103E900032462846BDE8F04103F050BA10B50C4652
:103EA000B1F90E1004F022FBA389421C0EBF23F4CB
:103EB000805343F480532065A38110BDB1F90E10E7
:103EC00003F0D6BA0000000000000000000000006F
:103ED00000000000000000000000000000000000E2
:103EE000A2EB0300704700BF02780B78012A28BFBD
:103EF0009A42F5D16DE9044540EA0104CDE9026733
:103F00006FF0000C4FEA447212B380EA010414F01F
:103F1000070F6AD100F0070420F0070004F0030542
:103F200021F007014FEAC505F0E8042314F0040F5F
:103F3000F1E804670CFA05F462EA040266EA040692
:103F40000AD063EA0403624667EA0407664603E0B0
:103F5000F0E80423F1E8046782FA4CF582EA0604EB
:103F6000A4FA8CF46CBB83FA4CF583EA0705A5FA36
:103F70008CF595B950E9022351E9026782FA4CF5B4
:103F800082EA0604A4FA8CF483FA4CF583EA070566
:103F9000A5FA8CF52543DBD09CB92DBAB5FA85F48A
:103FA00024F0070427FA04F1DDE9026723FA04F399
:103FB00003F0FF0001F0FF01FDE80445A0EB010064
:103FC000704724BAB4FA84F424F0070426FA04F102
:103FD000DDE9026722FA04F202F0FF0001F0FF01BE
:103FE000FDE80445A0EB0100704714F0030F3CD13D
:103FF00010F0030428D150F8082B51F8083B82FA3E
:104000004CF582EA0305A5FA8CF55DB950F8042C4D
:1040100051F8043C82FA4CF582EA0305A5FA8CF5C6
:10402000002DE8D02DBAB5FA85F424F0070423FA60
:1040300004F122FA04F202F0FF0001F0FF01FDE8B2
:104040000445A0EB010070474FEAC40420F00300D0
:1040500050F8082B21F0030151F8083B0CFA04F446
:1040600062EA040263EA0403C9E710F003041AD009
:10407000A1EB040120F00300E40750F8042B06D064
:104080000FD28B785FFAA2F4E41A06D12BB1CB7869
:104090005FFAB2F4E41A00D11BB920465DF8104B68
:1040A000704701F1040150F8042BCC0721F0030103
:1040B00051F8043B48D824D222F07F4482FA4CF5D0
:1040C00094EA1325A5FA8CF50AD165B951F8043B99
:1040D00084EA0204B4EB036F0ED150F8042BEBE733
:1040E0004FEA132355E035F07F454DD10878FDE8C0
:1040F0000445C0F1000070474FEA126203F0FF036D
:1041000047E002EA1C4482FA4CF594EA1345A5FA0A
:104110008CF50AD165B951F8043B84EA0204B4EB8A
:10412000034F0CD150F8042BEBE74FEA134330E078
:1041300015EA1C4528D10B884FEA124229E04FEAC4
:10414000124203EA1C4324E002F0FF0482FA4CF519
:1041500094EA1365A5FA8CF50AD165B951F8043BC8
:1041600084EA0204B4EB032F09D150F8042BEBE7E7
:104170004FEA13630DE015F0FF0F05D10B684FEA0E
:10418000122223F07F4304E04FF00000FDE80445D5
:10419000704712BA1BBA82FA4CF482EA0304A4FAFA
:1041A0008CF5B5FA85F402FA04F203FA04F34FEA47
:1041B0001260FDE80445A0EB1360704700000000AA
:1041C00090F800F06DE9024520F007016FF0000C57
:1041D00010F0070491F820F040F049804FF00004FF
:1041E0006FF00700D1E9002391F840F000F10800DA
:1041F00082FA4CF2A4FA8CF283FA4CF3A2FA8CF312
:104200004BBBD1E9022382FA4CF200F10800A4FA78
:104210008CF283FA4CF3A2FA8CF3E3B9D1E90423CC
:1042200082FA4CF200F10800A4FA8CF283FA4CF303
:10423000A2FA8CF37BB9D1E9062301F1200182FABD
:104240004CF200F10800A4FA8CF283FA4CF3A2FAC3
:104250008CF3002BC6D0002A04BF04301A4612BAD1
:10426000B2FA82F2FDE8024500EBD2007047D1E9D4
:10427000002304F00305C4F100004FEAC50514F063
:10428000040F91F840F00CFA05F562EA05021CBF34
:1042900063EA050362464FF00004A9E7002A41D013
:1042A00040EA010313F00303F0B425D1032A23D914
:1042B00004680D68AC421FD1043A35D0A4F1013531
:1042C00025EA040414F0803F31D1071D0D1D0DE0D7
:1042D00057F8043B0E68A3F10134B34224EA030407
:1042E0000AD1043A20D014F0803F1DD1032A294678
:1042F000384605F10405EBD803780C789C4202F1AE
:10430000FF320CD182B114B90EE06AB17BB110F862
:10431000013F11F8014FA34202F1FF32F5D0181B03
:10432000F0BC7047104670470020F0BC704718463C
:10433000F6E700BF40EA01039B0770B42AD1032AC5
:1043400028D90C460346214654F8046BA6F10135E2
:1043500025EA060515F0803F06D1043A032A43F802
:10436000046B2146EFD89AB10C781C70013A0133E6
:104370003CB16AB111F8014F03F8014B013A002C2E
:10438000F7D12AB11A44002103F8011B9342FBD153
:1043900070BC70470346E6E72DE9F04FDBB00C46F2
:1043A0000A9193460D93079004F092F803681B93CB
:1043B0001846FFF705FFA3891A901F0603D5236946
:1043C000002B00F0578700235E469FED8F7B1493F0
:1043D000CDE92F331993CDE91D331F931C93099316
:1043E00031AB2E93994633788DED167B002B00F080
:1043F000CE82252B344602D11CE0252B03D014F8A5
:10440000013F002BF9D1A51B85B1DDE92F32013326
:104410002A44072BC9F80060C9F80450CDE92F32AF
:104420007CDC09F10809099B2B4409932378002BB4
:1044300000F0AD82002367780B9398468DF89B308F
:1044400004F1010B4FF0FF3A2B250BF1010BA7F103
:1044500020035A2B00F2E483DFE813F0A503E20304
:10446000E203A003E203E203E2038103E203E203C7
:10447000B503B003E20372015801E2033B03C60037
:10448000C600C600C600C600C600C600C600C600FC
:10449000E203E203E203E203E203E203E203400396
:1044A000E2037701F002400340034003E203E2032A
:1044B000E203E203EB02E203E2038400E203E2032D
:1044C000E203C202E203CE03E203E203AC02E20330
:1044D000E203E203E203E203E203E203E203400356
:1044E000E2037701DA00400340034003C103DA002E
:1044F0005B00E2031E03E203060386002B035B005E
:10450000E203C2025D002901E203E2033801E20393
:104510005D0048F020089BF8007096E72EAA0A99E3
:10452000079806F015F880B90DF1C4097BE72EAAAB
:104530005946504606F00CF8002801F0C7800E9B43
:104540001BB10E99079807F017FC0A9B9B8913F083
:10455000400F099B18BF4FF0FF33099309985BB0D8
:10456000BDE8F08F48F0100818F0200F00F07385B8
:104570000D9C073424F00703D3E9004503F108023A
:104580000D9228F48063002200218DF89B10BAF16F
:10459000FF3F5AA9089100F0A78454EA050123F0CF
:1045A00080085BD1BAF1000F40F09887002A40F0F4
:1045B0001F8513F001035AAE0C9302D0302306F886
:1045C000013D00230E931393189315930C9B9DF8B4
:1045D0009B205345B8BF53460893002A00F0C8807B
:1045E000089B01330893C3E0A7F1300300221BF8B6
:1045F000017B02EB820203EB4202A7F13003092B9D
:10460000F5D90B9223E700BF000000000000000076
:1046100043469E0640F117820D9C073424F00704A0
:10462000D4E9000104F108020D9204460D46002869
:1046300071F1000205DA2D22644265EB45058DF823
:104640009B205AAABAF1FF3F089200F0E58654EA8F
:1046500005014FF0010223F08008A3D0012A00F0E9
:104660004784022A00F0EF825AA900E03146E208AE
:1046700042EA4572E80804F0070305461446303361
:1046800054EA050201F8013C01F1FF36EED118F0C1
:10469000010F00F0E882302B00F0E582089A023921
:1046A0003023521A06F8013C0C920E4689E7434625
:1046B0009E0640F1A6820D9C073424F0070202F109
:1046C0000801D2E900450D9101225DE7B64B19932F
:1046D00018F0200F00F074810D9C073424F00703BC
:1046E000D3E9004503F108020D9218F0010F09D03B
:1046F00054EA050306D030238DF89D7048F0020877
:104700008DF89C3028F4806302223DE79BF800700E
:104710002A2F0BF1010201F0EF82A7F13003092BE0
:1047200093464FF0000A3FF692AE1BF8017B0AEB6E
:104730008A0A03EB4A0AA7F13003092BF5D986E66A
:104740009BF8007048F004087FE60D98002301688C
:104750008DF89B301A468DF804110123011DCDE917
:104760000C3108930E92924613921892159241AE14
:1047700018F002030F9302D0089B0233089318F03D
:104780008403309C12933FD10B9B08995D1A002D36
:104790003ADD102D2F9A29DD49462046B1461023D7
:1047A0002497079C0A9E04E0103D102D01F108019A
:1047B00018DD01327D4F1030072ACDE92F20C1E9E5
:1047C0000073F1DD2EAA31462046109305F0C0FE9D
:1047D00000287FF4B4AE103D102DDDE92F2031A963
:1047E000109BE6DC249F4E460446894601326F4BFF
:1047F0002C44072ACDE92F24C9E9003500F37E8532
:104800009DF89B2009F1080972B12F9A01320134F9
:104810000DF19B000121072ACDE92F24C9E90001F0
:1048200000F3738309F108090F9B6BB12F9B0133D0
:10483000023427A90222072BCDE92F34C9E900123F
:1048400000F36F8309F10809129B802B00F0798235
:104850000C9BAAEB0305002D35DD102D2F9A544B30
:1048600026DD49462046B1464FF0100A0A9E1C46F6
:1048700004E0103D102D01F1080115DD013210306A
:10488000072ACDE92F20C1E9004AF2DD2EAA3146E0
:10489000079805F05DFE00287FF451AE103D102D05
:1048A000DDE92F2031A9E9DC4E462346894604463E
:1048B00001322C44072ACDE92F24C9E9003500F341
:1048C0003C8309F1080918F4807F40F0DB812F9BBD
:1048D0000C9AC9F8006001331444072B3094C9F8CE
:1048E00004202F9300F3A18209F1080918F0040FA6
:1048F00033D00B9B089A9D1A002D2EDD102D2F9B77
:1049000021DD1026079FDDF8288004E0103D102DE2
:1049100009F1080917DD0133244A1034072BCDE9CA
:104920002F34C9E90026F1DD2EAA4146384605F0AC
:104930000FFE00287FF403AE103D102DDDE92F346B
:104940000DF1C409E7DC0133184A2C44072BCDE9EB
:104950002F34C9E9002500F3A583099B0B9A089918
:104960008A42ACBF9B185B180993002C40F025824B
:1049700000232F930E9B1BB10E99079807F0FCF9AB
:104980000DF1C4095E463378002B7FF432AD309BC5
:10499000002B3FF4DAAD0A9C07982EAA214605F0B9
:1049A000D7FDA389D3E500BFB8D30008ECD3000836
:1049B000FCD30008AE4B199318F0200F7FF48CAE97
:1049C0000D9A18F0100F02F1040340F0798318F0EB
:1049D000400F0D9A00F0708314880D93002584E633
:1049E0000D9B1E6800258DF89B501C1D002E00F0AD
:1049F0007584BAF1FF3F00F0618652462946304681
:104A0000FEF7A6FE0E90002800F09A870E9B9B1BD7
:104A10000C93AA4623EAE3730D940893CDF838A0CB
:104A2000CDF84CA0CDF860A0CDF854A09DF89B2007
:104A3000D3E548F008089BF8007006E548F010033D
:104A40009E063FF5E9AD0D99DD0601F1040200F186
:104A500051835C060D9940F14A83B1F900400D92F3
:104A6000E51720462946E2E50D9A18F0200F52F886
:104A7000043B0D9240F0458318F0100F40F07E8506
:104A800018F0400F40F0308618F4007F00F0768573
:104A9000099A1A705E4676E79BF800706C2F03BF88
:104AA0009BF8017048F020080BF1010B48F010084A
:104AB000CBE40D996F4B0C68199347F63002043123
:104AC000ADF89C2048F002030D91002502227827C2
:104AD0005AE548F080089BF80070B6E40D9C073456
:104AE00024F0070494ED007B52EC171B22F00043E6
:104AF00021938DED207A0834DDE920014FF0FF325B
:104B00005D4B0D948DED167B06F004FF002840F000
:104B1000FF824FF0FF32584BDDE9200106F0DCFE4A
:104B2000002840F0F58200220023DDE9160106F09E
:104B3000C9FE002840F0E3869DF89B204F4E504B65
:104B40000020032108910E9028F08008472FD8BF3D
:104B50001E460C9182461390189015903DE5079FD4
:104B6000384603F0B5FC43681C931846FFF728FB52
:104B70001F900446384603F0ABFC83681E93002C5C
:104B80003FF4C9AC9BF80070002B3FF45EAC1B787F
:104B9000002B3FF45AAC48F4806856E448F0010812
:104BA0009BF8007051E49DF89B309BF80070002B3F
:104BB0007FF44BAC20238DF89B3046E48DF89B505E
:104BC0009BF8007041E40D9B9BF800701A680B92F3
:104BD000002A03F10403C0F25C830D9335E49BF8D3
:104BE0000070682F03BF9BF8017048F400780BF148
:104BF000010B48F0400828E448F010039E063FF5FA
:104C00005AAD0D9ADD0602F1040100F161825C06E5
:104C10000D9A40F15A8214880D9100250122B3E4C7
:104C2000002F3FF4B4AE002301211A4608918DF8FD
:104C300004718DF89B300E939A4613931893159335
:104C40000C9141AE94E519985AAE230904F00F0176
:104C500043EA05732A091C461546435C06F8013DE4
:104C600054EA0503F1D1089B9B1B0C93A9E400BFF8
:104C7000CCD30008B8D30008FFFFEF7FACD3000807
:104C8000A8D30008652F40F3DC8000220023DDE973
:104C9000160106F00DFE002800F060812F9BAD4A42
:104CA000C9F80020013301340122072BCDE92F344C
:104CB000C9F8042000F33E8409F10809289B149ADE
:104CC000309C934280F2E9812F9B1B9AC9F8002007
:104CD0001A9AC9F8042001331444072BCDE92F3464
:104CE00000F3F08209F10809149B5D1E002D7FF787
:104CF000FDAD102D2F9A984B40F3058419461026D0
:104D00002346079FDDF828A00C4605E009F10809B5
:104D1000103D102D40F3F48301321033072ACDE902
:104D20002F23C9E90046F1DD2EAA5146384605F089
:104D30000FFC00287FF403ACDDE92F230DF1C4093B
:104D4000E6E70B9B089A9D1A002D7FF781AD102D89
:104D50002F9A814B25DD49462046B1461C460A9EC6
:104D600004E0103D102D01F1080116DD0132103074
:104D70001023072ACDE92F200C604B60F1DD2EAA0D
:104D80003146079805F0E4FB00287FF4D8AB103DCE
:104D9000102DDDE92F2031A9E8DC4E462346894657
:104DA000044601322C44072ACDE92F24C9E90035F5
:104DB00000F3B38309F108094AE52EAA0A99079876
:104DC00005F0C6FB00283FF4D3ADFFF7B8BB2EAA11
:104DD0000A99079805F0BCFB00287FF4B0AB289B2C
:104DE000309C0DF1C4091BB9149A002A00F0948478
:104DF0002F9A1B99C9F800101A99C9F804100132AA
:104E00000C44072A30942F9200F3A78509F1080972
:104E1000002BC0F21E86149B01321C44072ACDE9E8
:104E20002F24C9E900637FF75FAD2EAA0A9907987E
:104E300005F08EFB00287FF482AB309C0DF1C40995
:104E400054E5149A2F9B012A04F1010403F1010592
:104E500009F1080740F30E810123072DC9F800600E
:104E6000CDE92F54C9F8043000F31F831A9B1B9A15
:104E7000691C1C4407290F91CDE92F14C7E90023B1
:104E800000F31F8308370F9A531C1D460C95149D81
:104E9000129300220023DDE9160105F1FF3A07F124
:104EA000080906F005FD002840F0A7800C9DC7F812
:104EB00004A001365444072D3E6030942F9500F332
:104EC000F1810F9A07F1100302324F460C92994676
:104ED0001D9A7A6014440C9A30942AAB072A2F92B8
:104EE0003B607FF703ADA0E7012A98467FF4B9AB9A
:104EF000002D08BF0A2C80F095825AAE3034012371
:104F000006F8014D0C93FFF75CBB2EAA0A9907988F
:104F100005F01EFB00287FF412AB309C0DF1C40994
:104F200082E42EAA0A99079805F012FB00287FF464
:104F300006AB309C0DF1C40986E42EAA0A990798A5
:104F400005F006FB00287FF4FAAA309C0DF1C40995
:104F5000B9E400BFE8D30008FCD30008289B002B6D
:104F600040F37781DDE914239342A8BF1346002B59
:104F70001D460DDD2F9BC9F8006001332C44072B23
:104F80003094C9F804502F9300F3BE8409F1080946
:104F9000159B002DA8BF5B1B002B1D4640F3D6813F
:104FA000102D2F9ABD4B40F3BD81184621464B462C
:104FB0001027B146DDF81CA00A9C064604E0083321
:104FC000103D102D40F3A98101321031072ACDE99F
:104FD0002F21C3E90067F2DD2EAA2146504605F0D5
:104FE000B7FA00287FF4ABAADDE92F2131ABE7E760
:104FF000CDF830A05AAEFFF7E4BABAF1000F7FF750
:1050000067AFBAF1100FA54B40F3528619462246FE
:105010003B461026DDF81C900A9C129D0F4607E0C7
:105020000833AAF1100ABAF1100F40F38F8201354C
:105030001032072DCDE92F52C3E90076F0DD2EAAFC
:105040002146484605F084FA00287FF478AADDE975
:105050002F5231ABE5E70D9A18F0100F02F104035F
:1050600040D118F0400F0D9A38D014880D930025C8
:10507000FFF787BA18F0010F7FF4EEAE0122072D7B
:10508000C9F80060CDE92F54C9F8042000F30A8163
:1050900002330C9309F110091AE718F0010F7FF49D
:1050A00013AE23E42EAA0A99079805F051FA0028B6
:1050B0007FF445AA309C50E418F4007F40F00F8341
:1050C00014680D930025FFF710BB980500F11183BC
:1050D00014680D9101220025FFF756BA18F4007FDD
:1050E00040F0158314680D930025FFF74ABA980520
:1050F00000F105830C680D92E51720462946FFF75D
:1051000096BA099A1046D117C3E900015E463AE4FF
:10511000DDE9160102460B4606F0FCFB002840F0D4
:105120009D85612F00F00784412F00F0FB8248F439
:10513000807327F02002BAF1FF3F12930892179B69
:1051400000F02085472A00F01785002BC0F2E98384
:105150009DED167BCDE90E008DED227B662F00F0D4
:10516000DB84462F00F06385089B452B0CBF0AF1BA
:10517000010555462CA829A928AA0223CDE9031028
:10518000029200930195DDE92223079802F014FAB8
:10519000672F064640F0978518F0010F40F0F6841F
:1051A0002C9B40469B1BDDF848801493289B15934D
:1051B000089B472B00F06F83089B462B00F005846B
:1051C0000899159BFAB2412908BF0F3203F1FF334A
:1051D00006BFD2B201210021002B2893B8BF159B36
:1051E0008DF8A820BABFC3F101032D222B22092B71
:1051F0008DF8A92000F3E484002940F06C8530226A
:105200008DF8AA200DF1AB0230331370531C2AAA7B
:105210009B1A149A1D93012A13440C9340F32A8578
:105220000C9B1A9A13440C93002313931893159311
:105230000C9B20F4806023EAE37340F480780893A9
:105240000F9B002B40F03A839A469DF89B20FFF776
:10525000C4B92F9A1249C9F8001001320134012152
:10526000072ACDE92F24C9F804103FF7B0AD09F1A2
:105270000809B8E54021079806F07AFD0A9B1860F6
:105280001861002800F062850A9A40235361FFF7F5
:105290009AB852420B920D93FFF754BAFCD3000810
:1052A000E8D300082EAA0A99079805F051F90028BA
:1052B0007FF445A9DDE92F3401330C930DF1CC09BE
:1052C00031AF05E62EAA0A99079805F041F90028A2
:1052D0007FF435A9309C0DF1C40905E55346062B32
:1052E00028BF0623B2461396189615960E96324698
:1052F0000893CDE90C34A44EFFF76FB92EAA0A9992
:10530000079805F025F900287FF419A99DF89B203E
:10531000309C0DF1C409FFF777BA0C4631464E4672
:1053200099460B4601322C44072ACDE92F24C9E9BE
:10533000003540F3D1812EAA0A99079805F008F9A3
:1053400000287FF4FCA8309C0DF1C409159B18F4CB
:10535000806F33449A4640F01B81289B149A9342F5
:1053600049DB18F0010F46D1149AB518A5EB0A05D0
:10537000D31A9D42A8BF1D46002D0DDD2F9AC9F8F6
:1053800000A001322C44072A3094C9F804502F920F
:1053900000F33A8309F10809002DACBF5D1B1D46DF
:1053A000002D7FF7A3AA102D2F9A784B40F3AB80E6
:1053B000194610262346079FDDF828A00C4605E075
:1053C00009F10809103D102D40F39A800132103385
:1053D000072ACDE92F23C9E90046F1DD2EAA51465F
:1053E000384605F0B5F800287FF4A9A8DDE92F2399
:1053F0000DF1C409E6E72F9A1B99C9F800101A9914
:10540000C9F8041001320C44072A30942F9200F39B
:10541000B38209F10809A7E7002D08BF0A2C9846B6
:10542000FFF46BAD08F480630022CDF830900E9746
:10543000CDF83C805AAE9146DDF878801F460AE0F0
:105440000023204629460A2206F012FB04460D4698
:1054500054EA050346D00A2200232046294606F0D6
:1054600007FB303206F8012C09F10109013E002F3B
:10547000E6D098F800309945E2D1B9F1FF0FDFD0BE
:10548000002D08BF0A2CDBD31F9B1C99F61A1A4665
:105490003046FEF74FFF98F80130002B00F088836C
:1054A00008F101084FF00009CAE72EAA0A990798E7
:1054B00005F04EF800287FF442A8DDE92F5431AF03
:1054C000D4E42EAA0A99079805F042F800287FF440
:1054D00036A8DDE92F3431AF0F93D4E4012A7FF4ED
:1054E000C0A80AE5089BCDF850909B1BDDF83090D2
:1054F000CDF878800E9FDDF83C800C93FFF761B803
:1055000021461C460B4601322C44072ACDE92F24A4
:10551000C9E900357FF7E8A987E42EAA0A99079818
:1055200005F016F800287FF40AA8309C0DF1C40994
:10553000FFF78EB92EAA0A99079805F009F80028F6
:105540007EF4FDAF0DF1C409FFF7B8BB14463A462F
:105550001F4613462A4601320C9207F10802C7E99A
:10556000003A0C9B2F935444072B30943FF79AAE8C
:1055700001330C9302F108091746A9E4099A1A604D
:105580005E46FFF700BA00BFE0D30008FCD3000876
:10559000149BCDF83CB0F3180C93189BCDF84880C1
:1055A0004A461096C14FDDF87C90DDF87880DDF832
:1055B00028B056462146DDF81CA0002B5ED0139B78
:1055C000002B5FD1189B013B08F1FF3818932F9BEC
:1055D0001C98106001334944072B3091C2F80490A5
:1055E0002F9353DC08320C9898F80030851B9D42AD
:1055F000A8BF1D46002D0BDD2F9B166001332944EB
:10560000072B309155602F934BDC98F8003008320F
:10561000002DACBF5D1B1D46002D2BDD102D2F98DE
:105620001CDD102404E0103D102D02F1080215DDF0
:10563000013010310728CDE92F01C2E90074F2DDF5
:105640002EAA5946504604F083FF00287EF477AF17
:10565000103D102DDDE92F0131AAE9DC013029448C
:105660000728CDE92F01C2E900753EF760AF98F831
:10567000003008321E44189B002BA0D1139B002B36
:1056800000F0F980139B013B1393A0E72EAA594623
:10569000504604F05DFF00287EF451AF309931AAE6
:1056A000A1E72EAA5946504604F052FF00287EF486
:1056B00046AF98F80030309931AAA9E73046FEF796
:1056C0007FFDAA4603460C90FFF7A4B998F8003076
:1056D000309931AA1E44CEE709F1080936E614785C
:1056E0000D930025FFF701B8099A1A805E46FFF76F
:1056F0004AB914780D9100250122FEF745BF91F9B2
:1057000000400D92E51720462946FEF790BF147819
:105710000D930025FEF735BF18F0010F3FF4E6A802
:10572000FFF766BB30238DF89C305823BAF1630F26
:105730008DF89D3048F0020400F3B28148F4817383
:10574000129327F0200308930022179B0E92A04685
:1057500041AE002BC0F2E6809DED167B8DED227BE5
:1057600000230F93612F00F05E81412F7FF4F6AC90
:1057700028AADDE9220103F083FB00224FF07F53CA
:1057800005F02EFE00220023CDE9100106F090F86E
:10579000002840F04482464B0C930AF1FF34CDE9D7
:1057A000139B1597CDF860A0B1462596CDF8908053
:1057B000DDF830A0DDE9106703E006F079F820BBE2
:1057C000A94600223B4B3046394605F009FE0F46FC
:1057D000064606F0B5F8804605F098FD02460B46F1
:1057E0003046394605F044FC4D461AF808C005F825
:1057F00001CBB4F1FF3FA34606460F464FF000022F
:105800004FF0000304F1FF34D7D13046394600226F
:10581000294B159FDDF860A0CDF854904446DDF883
:105820004C90DDF89080CDF84CB0259EDDF850B05E
:10583000CDE9100106F064F8002840F0AA80DDE907
:10584000100100221C4B06F033F818B12346DB0789
:1058500000F19F80139B002B07DB139B01332B442C
:10586000302205F8012BAB42FBD1AB1B4046149311
:10587000DDF848809AE4B246149B109ECDF87880FB
:10588000F3189A459146DDF83CB0DDF848800C46A7
:1058900028BF9A4661E5159BDA1C01DB534514DDF0
:1058A000023F27F0200308938AE400BFFCD30008DE
:1058B000CCD30008000030400000E03F2D228DF8DE
:1058C0009B204FF0000AFEF78BBE159B14998B426C
:1058D000C0F29080C20740F1A7811A9A13440C933A
:1058E000470503D5159B002B00F3ED800C9B23EAA5
:1058F000E37308936727002313931893A0E42D22E2
:105900008DF89B20FFF71AB92EAA0A99079804F080
:105910001FFE00287EF413AE309C0DF1C409FFF782
:1059200037BB0E90DDE9161202F1004323932D23BD
:1059300022910F9316E730238DF89C307823F5E6FB
:10594000CDF820A0CDF830A00D9482461390189089
:1059500015909DF89B20FEF740BE2EAA0A99079845
:1059600004F0F6FD00287EF4EAAD289BDDE92F2443
:105970000DF1C409FFF74CBA2EAA0A99079804F052
:10598000E7FD00287EF4DBAD289B309C0DF1C409B7
:10599000EAE4159B2C930C9B15F8012CD97B9142C2
:1059A0002B4609D1302003F8010C2C9B5A1E2C9257
:1059B00013F8012C9142F6D0392A0BBF0C9A013210
:1059C000927AD2B203F8012C4FE7159B002B40F3DB
:1059D0005681159BBAF1000F40F0EC80C40700F12E
:1059E000E9800C93662743056ED40C9B23EAE3738E
:1059F000089380E7149B1A9A13440C93159B002B71
:105A000040F34C816727EEE72EAA0A99079804F025
:105A10009FFD00287EF493AD289B149A309CD31AE6
:105A20000DF1C409B8E428AADDE9220103F028FA3F
:105A300000224FF07F5305F0D3FC00220023CDE974
:105A4000100105F035FF08B101232893B94B0C93E1
:105A5000A3E65D421033B84B80F29D8019461027B3
:105A60002346DDF81CA00C4605E009F10809103DAD
:105A7000102D40F38D8001321033072ACDE92F23FA
:105A8000C9E90047F1DD2EAA0A99504604F060FDED
:105A900000287EF454ADDDE92F230DF1C409E6E7BB
:105AA0000AF10101079806F063F90646002800F0A4
:105AB000558148F48173129327F020030893A04680
:105AC000179B0E9045E667271E98002213921892A6
:105AD0000378159AFF2B0CD093420ADA4178D21A38
